{
  "_format": "hh-sol-artifact-1",
  "contractName": "GameToken",
  "sourceName": "contracts/GameToken.sol",
  "abi": [
    {
      "inputs": [
        {
          "internalType": "uint256",
          "name": "registrationTime",
          "type": "uint256"
        }
      ],
      "stateMutability": "nonpayable",
      "type": "constructor"
    },
    {
      "anonymous": false,
      "inputs": [
        {
          "indexed": false,
          "internalType": "address",
          "name": "player",
          "type": "address"
        },
        {
          "indexed": false,
          "internalType": "uint256",
          "name": "amount",
          "type": "uint256"
        }
      ],
      "name": "AirdropClaimed",
      "type": "event"
    },
    {
      "anonymous": false,
      "inputs": [
        {
          "indexed": true,
          "internalType": "address",
          "name": "owner",
          "type": "address"
        },
        {
          "indexed": true,
          "internalType": "address",
          "name": "spender",
          "type": "address"
        },
        {
          "indexed": false,
          "internalType": "uint256",
          "name": "value",
          "type": "uint256"
        }
      ],
      "name": "Approval",
      "type": "event"
    },
    {
      "anonymous": false,
      "inputs": [
        {
          "indexed": false,
          "internalType": "address",
          "name": "creator",
          "type": "address"
        },
        {
          "indexed": false,
          "internalType": "bytes32",
          "name": "itemId",
          "type": "bytes32"
        }
      ],
      "name": "GameItemCreated",
      "type": "event"
    },
    {
      "anonymous": false,
      "inputs": [
        {
          "indexed": false,
          "internalType": "address",
          "name": "newOwner",
          "type": "address"
        },
        {
          "indexed": false,
          "internalType": "uint256",
          "name": "itemId",
          "type": "uint256"
        },
        {
          "indexed": false,
          "internalType": "string",
          "name": "itemName",
          "type": "string"
        }
      ],
      "name": "ItemRedeemed",
      "type": "event"
    },
    {
      "anonymous": false,
      "inputs": [
        {
          "indexed": true,
          "internalType": "address",
          "name": "previousOwner",
          "type": "address"
        },
        {
          "indexed": true,
          "internalType": "address",
          "name": "newOwner",
          "type": "address"
        }
      ],
      "name": "OwnershipTransferred",
      "type": "event"
    },
    {
      "anonymous": false,
      "inputs": [
        {
          "indexed": false,
          "internalType": "address",
          "name": "player",
          "type": "address"
        },
        {
          "indexed": false,
          "internalType": "bool",
          "name": "success",
          "type": "bool"
        }
      ],
      "name": "Registered",
      "type": "event"
    },
    {
      "anonymous": false,
      "inputs": [
        {
          "indexed": false,
          "internalType": "address",
          "name": "owner",
          "type": "address"
        },
        {
          "indexed": false,
          "internalType": "uint256",
          "name": "amount",
          "type": "uint256"
        }
      ],
      "name": "TokenBurnt",
      "type": "event"
    },
    {
      "anonymous": false,
      "inputs": [
        {
          "indexed": true,
          "internalType": "address",
          "name": "from",
          "type": "address"
        },
        {
          "indexed": true,
          "internalType": "address",
          "name": "to",
          "type": "address"
        },
        {
          "indexed": false,
          "internalType": "uint256",
          "name": "value",
          "type": "uint256"
        }
      ],
      "name": "Transfer",
      "type": "event"
    },
    {
      "inputs": [],
      "name": "airdropToken",
      "outputs": [],
      "stateMutability": "nonpayable",
      "type": "function"
    },
    {
      "inputs": [
        {
          "internalType": "address",
          "name": "owner",
          "type": "address"
        },
        {
          "internalType": "address",
          "name": "spender",
          "type": "address"
        }
      ],
      "name": "allowance",
      "outputs": [
        {
          "internalType": "uint256",
          "name": "",
          "type": "uint256"
        }
      ],
      "stateMutability": "view",
      "type": "function"
    },
    {
      "inputs": [
        {
          "internalType": "address",
          "name": "spender",
          "type": "address"
        },
        {
          "internalType": "uint256",
          "name": "amount",
          "type": "uint256"
        }
      ],
      "name": "approve",
      "outputs": [
        {
          "internalType": "bool",
          "name": "",
          "type": "bool"
        }
      ],
      "stateMutability": "nonpayable",
      "type": "function"
    },
    {
      "inputs": [],
      "name": "balance",
      "outputs": [
        {
          "internalType": "uint256",
          "name": "",
          "type": "uint256"
        }
      ],
      "stateMutability": "view",
      "type": "function"
    },
    {
      "inputs": [
        {
          "internalType": "address",
          "name": "account",
          "type": "address"
        }
      ],
      "name": "balanceOf",
      "outputs": [
        {
          "internalType": "uint256",
          "name": "",
          "type": "uint256"
        }
      ],
      "stateMutability": "view",
      "type": "function"
    },
    {
      "inputs": [
        {
          "internalType": "uint256",
          "name": "amount",
          "type": "uint256"
        }
      ],
      "name": "burnToken",
      "outputs": [],
      "stateMutability": "nonpayable",
      "type": "function"
    },
    {
      "inputs": [],
      "name": "claimToken",
      "outputs": [],
      "stateMutability": "nonpayable",
      "type": "function"
    },
    {
      "inputs": [],
      "name": "decimals",
      "outputs": [
        {
          "internalType": "uint8",
          "name": "",
          "type": "uint8"
        }
      ],
      "stateMutability": "view",
      "type": "function"
    },
    {
      "inputs": [
        {
          "internalType": "address",
          "name": "spender",
          "type": "address"
        },
        {
          "internalType": "uint256",
          "name": "subtractedValue",
          "type": "uint256"
        }
      ],
      "name": "decreaseAllowance",
      "outputs": [
        {
          "internalType": "bool",
          "name": "",
          "type": "bool"
        }
      ],
      "stateMutability": "nonpayable",
      "type": "function"
    },
    {
      "inputs": [
        {
          "internalType": "uint256",
          "name": "",
          "type": "uint256"
        }
      ],
      "name": "gameItems",
      "outputs": [
        {
          "internalType": "address",
          "name": "itemOwner",
          "type": "address"
        },
        {
          "internalType": "uint256",
          "name": "itemId",
          "type": "uint256"
        },
        {
          "internalType": "string",
          "name": "itemName",
          "type": "string"
        },
        {
          "internalType": "uint256",
          "name": "amount",
          "type": "uint256"
        }
      ],
      "stateMutability": "view",
      "type": "function"
    },
    {
      "inputs": [
        {
          "internalType": "address",
          "name": "spender",
          "type": "address"
        },
        {
          "internalType": "uint256",
          "name": "addedValue",
          "type": "uint256"
        }
      ],
      "name": "increaseAllowance",
      "outputs": [
        {
          "internalType": "bool",
          "name": "",
          "type": "bool"
        }
      ],
      "stateMutability": "nonpayable",
      "type": "function"
    },
    {
      "inputs": [],
      "name": "name",
      "outputs": [
        {
          "internalType": "string",
          "name": "",
          "type": "string"
        }
      ],
      "stateMutability": "view",
      "type": "function"
    },
    {
      "inputs": [],
      "name": "owner",
      "outputs": [
        {
          "internalType": "address",
          "name": "",
          "type": "address"
        }
      ],
      "stateMutability": "view",
      "type": "function"
    },
    {
      "inputs": [
        {
          "internalType": "string",
          "name": "_playerName",
          "type": "string"
        }
      ],
      "name": "playerRegister",
      "outputs": [],
      "stateMutability": "nonpayable",
      "type": "function"
    },
    {
      "inputs": [
        {
          "internalType": "address",
          "name": "",
          "type": "address"
        }
      ],
      "name": "players",
      "outputs": [
        {
          "internalType": "address",
          "name": "player",
          "type": "address"
        },
        {
          "internalType": "string",
          "name": "name",
          "type": "string"
        },
        {
          "internalType": "bool",
          "name": "isRegistered",
          "type": "bool"
        },
        {
          "internalType": "bool",
          "name": "hasClaimed",
          "type": "bool"
        }
      ],
      "stateMutability": "view",
      "type": "function"
    },
    {
      "inputs": [
        {
          "internalType": "uint256",
          "name": "_itemId",
          "type": "uint256"
        }
      ],
      "name": "redeemItem",
      "outputs": [],
      "stateMutability": "nonpayable",
      "type": "function"
    },
    {
      "inputs": [],
      "name": "renounceOwnership",
      "outputs": [],
      "stateMutability": "nonpayable",
      "type": "function"
    },
    {
      "inputs": [],
      "name": "symbol",
      "outputs": [
        {
          "internalType": "string",
          "name": "",
          "type": "string"
        }
      ],
      "stateMutability": "view",
      "type": "function"
    },
    {
      "inputs": [],
      "name": "totalSupply",
      "outputs": [
        {
          "internalType": "uint256",
          "name": "",
          "type": "uint256"
        }
      ],
      "stateMutability": "view",
      "type": "function"
    },
    {
      "inputs": [
        {
          "internalType": "address",
          "name": "_to",
          "type": "address"
        },
        {
          "internalType": "uint256",
          "name": "_value",
          "type": "uint256"
        }
      ],
      "name": "transfer",
      "outputs": [
        {
          "internalType": "bool",
          "name": "",
          "type": "bool"
        }
      ],
      "stateMutability": "nonpayable",
      "type": "function"
    },
    {
      "inputs": [
        {
          "internalType": "address",
          "name": "from",
          "type": "address"
        },
        {
          "internalType": "address",
          "name": "to",
          "type": "address"
        },
        {
          "internalType": "uint256",
          "name": "amount",
          "type": "uint256"
        }
      ],
      "name": "transferFrom",
      "outputs": [
        {
          "internalType": "bool",
          "name": "",
          "type": "bool"
        }
      ],
      "stateMutability": "nonpayable",
      "type": "function"
    },
    {
      "inputs": [
        {
          "internalType": "address",
          "name": "newOwner",
          "type": "address"
        }
      ],
      "name": "transferOwnership",
      "outputs": [],
      "stateMutability": "nonpayable",
      "type": "function"
    }
  ],
  "bytecode": "0x60a060405234801562000010575f80fd5b506040516200419138038062004191833981810160405281019062000036919062000905565b6040518060400160405280600981526020017f47616d65546f6b656e00000000000000000000000000000000000000000000008152506040518060400160405280600381526020017f47544b00000000000000000000000000000000000000000000000000000000008152508160039081620000b3919062000b90565b508060049081620000c5919062000b90565b505050620000e8620000dc620001a460201b60201c565b620001ab60201b60201c565b8042620000f6919062000ca1565b6080818152505062000121620001116200026e60201b60201c565b620186a06200029660201b60201c565b5f60075f620001356200026e60201b60201c565b73ffffffffffffffffffffffffffffffffffffffff1673ffffffffffffffffffffffffffffffffffffffff1681526020019081526020015f2090506001816002015f6101000a81548160ff0219169083151502179055506200019c620003fb60201b60201c565b505062000d85565b5f33905090565b5f60055f9054906101000a900473ffffffffffffffffffffffffffffffffffffffff1690508160055f6101000a81548173ffffffffffffffffffffffffffffffffffffffff021916908373ffffffffffffffffffffffffffffffffffffffff1602179055508173ffffffffffffffffffffffffffffffffffffffff168173ffffffffffffffffffffffffffffffffffffffff167f8be0079c531659141344cd1fd0a4f28419497f9722a3daafe3b4186f6b6457e060405160405180910390a35050565b5f60055f9054906101000a900473ffffffffffffffffffffffffffffffffffffffff16905090565b5f73ffffffffffffffffffffffffffffffffffffffff168273ffffffffffffffffffffffffffffffffffffffff160362000307576040517f08c379a0000000000000000000000000000000000000000000000000000000008152600401620002fe9062000d39565b60405180910390fd5b6200031a5f8383620008bf60201b60201c565b8060025f8282546200032d919062000ca1565b92505081905550805f808473ffffffffffffffffffffffffffffffffffffffff1673ffffffffffffffffffffffffffffffffffffffff1681526020019081526020015f205f82825401925050819055508173ffffffffffffffffffffffffffffffffffffffff165f73ffffffffffffffffffffffffffffffffffffffff167fddf252ad1be2c89b69c2b068fc378daa952ba7f163c4a11628f55a4df523b3ef83604051620003dc919062000d6a565b60405180910390a3620003f75f8383620008c460201b60201c565b5050565b60405180608001604052803073ffffffffffffffffffffffffffffffffffffffff168152602001600181526020016040518060400160405280600381526020017f436172000000000000000000000000000000000000000000000000000000000081525081526020016101f481525060085f600181526020019081526020015f205f820151815f015f6101000a81548173ffffffffffffffffffffffffffffffffffffffff021916908373ffffffffffffffffffffffffffffffffffffffff160217905550602082015181600101556040820151816002019081620004e1919062000b90565b506060820151816003015590505060405180608001604052803073ffffffffffffffffffffffffffffffffffffffff168152602001600281526020016040518060400160405280600581526020017f41726d6f7200000000000000000000000000000000000000000000000000000081525081526020016102bc81525060085f600281526020019081526020015f205f820151815f015f6101000a81548173ffffffffffffffffffffffffffffffffffffffff021916908373ffffffffffffffffffffffffffffffffffffffff160217905550602082015181600101556040820151816002019081620005d5919062000b90565b506060820151816003015590505060405180608001604052803073ffffffffffffffffffffffffffffffffffffffff168152602001600381526020016040518060400160405280600681526020017f48656c6d65740000000000000000000000000000000000000000000000000000815250815260200161012c81525060085f600381526020019081526020015f205f820151815f015f6101000a81548173ffffffffffffffffffffffffffffffffffffffff021916908373ffffffffffffffffffffffffffffffffffffffff160217905550602082015181600101556040820151816002019081620006c9919062000b90565b506060820151816003015590505060405180608001604052803073ffffffffffffffffffffffffffffffffffffffff168152602001600481526020016040518060400160405280600581526020017f53776f7264000000000000000000000000000000000000000000000000000000815250815260200160c881525060085f600481526020019081526020015f205f820151815f015f6101000a81548173ffffffffffffffffffffffffffffffffffffffff021916908373ffffffffffffffffffffffffffffffffffffffff160217905550602082015181600101556040820151816002019081620007bc919062000b90565b506060820151816003015590505060405180608001604052803073ffffffffffffffffffffffffffffffffffffffff168152602001600581526020016040518060400160405280600781526020017f41726368657279000000000000000000000000000000000000000000000000008152508152602001606481525060085f600581526020019081526020015f205f820151815f015f6101000a81548173ffffffffffffffffffffffffffffffffffffffff021916908373ffffffffffffffffffffffffffffffffffffffff160217905550602082015181600101556040820151816002019081620008af919062000b90565b5060608201518160030155905050565b505050565b505050565b5f80fd5b5f819050919050565b620008e181620008cd565b8114620008ec575f80fd5b50565b5f81519050620008ff81620008d6565b92915050565b5f602082840312156200091d576200091c620008c9565b5b5f6200092c84828501620008ef565b91505092915050565b5f81519050919050565b7f4e487b71000000000000000000000000000000000000000000000000000000005f52604160045260245ffd5b7f4e487b71000000000000000000000000000000000000000000000000000000005f52602260045260245ffd5b5f6002820490506001821680620009b157607f821691505b602082108103620009c757620009c66200096c565b5b50919050565b5f819050815f5260205f209050919050565b5f6020601f8301049050919050565b5f82821b905092915050565b5f6008830262000a2b7fffffffffffffffffffffffffffffffffffffffffffffffffffffffffffffffff82620009ee565b62000a378683620009ee565b95508019841693508086168417925050509392505050565b5f819050919050565b5f62000a7862000a7262000a6c84620008cd565b62000a4f565b620008cd565b9050919050565b5f819050919050565b62000a938362000a58565b62000aab62000aa28262000a7f565b848454620009fa565b825550505050565b5f90565b62000ac162000ab3565b62000ace81848462000a88565b505050565b5b8181101562000af55762000ae95f8262000ab7565b60018101905062000ad4565b5050565b601f82111562000b445762000b0e81620009cd565b62000b1984620009df565b8101602085101562000b29578190505b62000b4162000b3885620009df565b83018262000ad3565b50505b505050565b5f82821c905092915050565b5f62000b665f198460080262000b49565b1980831691505092915050565b5f62000b80838362000b55565b9150826002028217905092915050565b62000b9b8262000935565b67ffffffffffffffff81111562000bb75762000bb66200093f565b5b62000bc3825462000999565b62000bd082828562000af9565b5f60209050601f83116001811462000c06575f841562000bf1578287015190505b62000bfd858262000b73565b86555062000c6c565b601f19841662000c1686620009cd565b5f5b8281101562000c3f5784890151825560018201915060208501945060208101905062000c18565b8683101562000c5f578489015162000c5b601f89168262000b55565b8355505b6001600288020188555050505b505050505050565b7f4e487b71000000000000000000000000000000000000000000000000000000005f52601160045260245ffd5b5f62000cad82620008cd565b915062000cba83620008cd565b925082820190508082111562000cd55762000cd462000c74565b5b92915050565b5f82825260208201905092915050565b7f45524332303a206d696e7420746f20746865207a65726f2061646472657373005f82015250565b5f62000d21601f8362000cdb565b915062000d2e8262000ceb565b602082019050919050565b5f6020820190508181035f83015262000d528162000d13565b9050919050565b62000d6481620008cd565b82525050565b5f60208201905062000d7f5f83018462000d59565b92915050565b6080516133ec62000da55f395f8181610bf70152610e5a01526133ec5ff3fe608060405234801561000f575f80fd5b5060043610610140575f3560e01c806370a08231116100b6578063a457c2d71161007a578063a457c2d71461033f578063a9059cbb1461036f578063b69ef8a81461039f578063dd62ed3e146103bd578063e2eb41ff146103ed578063f2fde38b1461042057610140565b806370a08231146102ad578063715018a6146102dd5780637b47ec1a146102e75780638da5cb5b1461030357806395d89b411461032157610140565b8063313ce56711610108578063313ce567146101fc578063395093511461021a578063430074c21461024a5780634451d89f1461027d5780634d06068a1461028757806358edfd0e1461029157610140565b806306fdde0314610144578063095ea7b31461016257806318160ddd146101925780631c26dc23146101b057806323b872dd146101cc575b5f80fd5b61014c61043c565b6040516101599190611ea2565b60405180910390f35b61017c60048036038101906101779190611f60565b6104cc565b6040516101899190611fb8565b60405180910390f35b61019a6104ee565b6040516101a79190611fe0565b60405180910390f35b6101ca60048036038101906101c59190611ff9565b6104f7565b005b6101e660048036038101906101e19190612024565b610751565b6040516101f39190611fb8565b60405180910390f35b61020461077f565b604051610211919061208f565b60405180910390f35b610234600480360381019061022f9190611f60565b610787565b6040516102419190611fb8565b60405180910390f35b610264600480360381019061025f9190611ff9565b6107bd565b60405161027494939291906120b7565b60405180910390f35b61028561088e565b005b61028f610bed565b005b6102ab60048036038101906102a6919061222d565b610e57565b005b6102c760048036038101906102c29190612274565b61116d565b6040516102d49190611fe0565b60405180910390f35b6102e56111b2565b005b61030160048036038101906102fc9190611ff9565b6111c5565b005b61030b6111d2565b604051610318919061229f565b60405180910390f35b6103296111fa565b6040516103369190611ea2565b60405180910390f35b61035960048036038101906103549190611f60565b61128a565b6040516103669190611fb8565b60405180910390f35b61038960048036038101906103849190611f60565b6112ff565b6040516103969190611fb8565b60405180910390f35b6103a761139e565b6040516103b49190611fe0565b60405180910390f35b6103d760048036038101906103d291906122b8565b611439565b6040516103e49190611fe0565b60405180910390f35b61040760048036038101906104029190612274565b6114bb565b60405161041794939291906122f6565b60405180910390f35b61043a60048036038101906104359190612274565b6115a5565b005b60606003805461044b9061236d565b80601f01602080910402602001604051908101604052809291908181526020018280546104779061236d565b80156104c25780601f10610499576101008083540402835291602001916104c2565b820191905f5260205f20905b8154815290600101906020018083116104a557829003601f168201915b5050505050905090565b5f806104d6611627565b90506104e381858561162e565b600191505092915050565b5f600254905090565b60075f3373ffffffffffffffffffffffffffffffffffffffff1673ffffffffffffffffffffffffffffffffffffffff1681526020019081526020015f206002015f9054906101000a900460ff16610583576040517f08c379a000000000000000000000000000000000000000000000000000000000815260040161057a906123e7565b60405180910390fd5b5f60085f8381526020019081526020015f2090505f73ffffffffffffffffffffffffffffffffffffffff16815f015f9054906101000a900473ffffffffffffffffffffffffffffffffffffffff1673ffffffffffffffffffffffffffffffffffffffff1603610627576040517f08c379a000000000000000000000000000000000000000000000000000000000815260040161061e9061244f565b60405180910390fd5b80600301546106353361116d565b1015610676576040517f08c379a000000000000000000000000000000000000000000000000000000000815260040161066d906124b7565b60405180910390fd5b61068b6106816111d2565b82600301546112ff565b6106ca576040517f08c379a00000000000000000000000000000000000000000000000000000000081526004016106c19061251f565b60405180910390fd5b33815f015f6101000a81548173ffffffffffffffffffffffffffffffffffffffff021916908373ffffffffffffffffffffffffffffffffffffffff1602179055507f2119bf1b086ef3aa2847a6312b3dcd27e073aa5745352e1c7c8f1fb442e762f333826001015483600201604051610745939291906125d0565b60405180910390a15050565b5f8061075b611627565b90506107688582856117f1565b61077385858561187c565b60019150509392505050565b5f6012905090565b5f80610791611627565b90506107b28185856107a38589611439565b6107ad9190612639565b61162e565b600191505092915050565b6008602052805f5260405f205f91509050805f015f9054906101000a900473ffffffffffffffffffffffffffffffffffffffff16908060010154908060020180546108079061236d565b80601f01602080910402602001604051908101604052809291908181526020018280546108339061236d565b801561087e5780601f106108555761010080835404028352916020019161087e565b820191905f5260205f20905b81548152906001019060200180831161086157829003601f168201915b5050505050908060030154905084565b5f73ffffffffffffffffffffffffffffffffffffffff163373ffffffffffffffffffffffffffffffffffffffff16036108fc576040517f08c379a00000000000000000000000000000000000000000000000000000000081526004016108f3906126b6565b60405180910390fd5b60075f3373ffffffffffffffffffffffffffffffffffffffff1673ffffffffffffffffffffffffffffffffffffffff1681526020019081526020015f206002015f9054906101000a900460ff16610988576040517f08c379a000000000000000000000000000000000000000000000000000000000815260040161097f906123e7565b60405180910390fd5b5f60075f3373ffffffffffffffffffffffffffffffffffffffff1673ffffffffffffffffffffffffffffffffffffffff1681526020019081526020015f206040518060800160405290815f82015f9054906101000a900473ffffffffffffffffffffffffffffffffffffffff1673ffffffffffffffffffffffffffffffffffffffff1673ffffffffffffffffffffffffffffffffffffffff168152602001600182018054610a359061236d565b80601f0160208091040260200160405190810160405280929190818152602001828054610a619061236d565b8015610aac5780601f10610a8357610100808354040283529160200191610aac565b820191905f5260205f20905b815481529060010190602001808311610a8f57829003601f168201915b50505050508152602001600282015f9054906101000a900460ff161515151581526020016002820160019054906101000a900460ff1615151515815250509050806060015115610b31576040517f08c379a0000000000000000000000000000000000000000000000000000000008152600401610b289061271e565b60405180910390fd5b5f610b46610b3d6111d2565b835f0151611439565b9050610b5d610b536111d2565b835f015183610751565b610b9c576040517f08c379a0000000000000000000000000000000000000000000000000000000008152600401610b9390612786565b60405180910390fd5b60018260600190151590811515815250507f650e45f04ef8a0c267b2f78d983913f69ae3a353b2b32de5429307522be0ab55825f015182604051610be19291906127a4565b60405180910390a15050565b610bf5611ae8565b7f00000000000000000000000000000000000000000000000000000000000000004211610c57576040517f08c379a0000000000000000000000000000000000000000000000000000000008152600401610c4e90612815565b60405180910390fd5b5f6006805480602002602001604051908101604052809291908181526020015f905b82821015610dc2578382905f5260205f2090600302016040518060800160405290815f82015f9054906101000a900473ffffffffffffffffffffffffffffffffffffffff1673ffffffffffffffffffffffffffffffffffffffff1673ffffffffffffffffffffffffffffffffffffffff168152602001600182018054610cfe9061236d565b80601f0160208091040260200160405190810160405280929190818152602001828054610d2a9061236d565b8015610d755780601f10610d4c57610100808354040283529160200191610d75565b820191905f5260205f20905b815481529060010190602001808311610d5857829003601f168201915b50505050508152602001600282015f9054906101000a900460ff161515151581526020016002820160019054906101000a900460ff16151515158152505081526020019060010190610c79565b5050505090505f815111610e0b576040517f08c379a0000000000000000000000000000000000000000000000000000000008152600401610e029061287d565b60405180910390fd5b5f5b8151811015610e5357610e3f828281518110610e2c57610e2b61289b565b5b60200260200101515f0151610bb86104cc565b508080610e4b906128c8565b915050610e0d565b5050565b427f000000000000000000000000000000000000000000000000000000000000000011610eb9576040517f08c379a0000000000000000000000000000000000000000000000000000000008152600401610eb090612959565b60405180910390fd5b5f73ffffffffffffffffffffffffffffffffffffffff1660075f3373ffffffffffffffffffffffffffffffffffffffff1673ffffffffffffffffffffffffffffffffffffffff1681526020019081526020015f205f015f9054906101000a900473ffffffffffffffffffffffffffffffffffffffff1673ffffffffffffffffffffffffffffffffffffffff1614610f85576040517f08c379a0000000000000000000000000000000000000000000000000000000008152600401610f7c906129c1565b60405180910390fd5b5f60075f3373ffffffffffffffffffffffffffffffffffffffff1673ffffffffffffffffffffffffffffffffffffffff1681526020019081526020015f20905033815f015f6101000a81548173ffffffffffffffffffffffffffffffffffffffff021916908373ffffffffffffffffffffffffffffffffffffffff160217905550818160010190816110179190612b6a565b506001816002015f6101000a81548160ff021916908315150217905550600681908060018154018082558091505060019003905f5260205f2090600302015f909190919091505f82015f9054906101000a900473ffffffffffffffffffffffffffffffffffffffff16815f015f6101000a81548173ffffffffffffffffffffffffffffffffffffffff021916908373ffffffffffffffffffffffffffffffffffffffff160217905550600182018160010190816110d49190612c4e565b50600282015f9054906101000a900460ff16816002015f6101000a81548160ff0219169083151502179055506002820160019054906101000a900460ff168160020160016101000a81548160ff02191690831515021790555050507f472c2fec85816a6e426ac9b8a4971b1224a52b6289cb30147b3918fb91dfce53336001604051611161929190612d33565b60405180910390a15050565b5f805f8373ffffffffffffffffffffffffffffffffffffffff1673ffffffffffffffffffffffffffffffffffffffff1681526020019081526020015f20549050919050565b6111ba611ae8565b6111c35f611b66565b565b6111cf3382611c29565b50565b5f60055f9054906101000a900473ffffffffffffffffffffffffffffffffffffffff16905090565b6060600480546112099061236d565b80601f01602080910402602001604051908101604052809291908181526020018280546112359061236d565b80156112805780601f1061125757610100808354040283529160200191611280565b820191905f5260205f20905b81548152906001019060200180831161126357829003601f168201915b5050505050905090565b5f80611294611627565b90505f6112a18286611439565b9050838110156112e6576040517f08c379a00000000000000000000000000000000000000000000000000000000081526004016112dd90612dca565b60405180910390fd5b6112f3828686840361162e565b60019250505092915050565b5f60075f8473ffffffffffffffffffffffffffffffffffffffff1673ffffffffffffffffffffffffffffffffffffffff1681526020019081526020015f206002015f9054906101000a900460ff1661138c576040517f08c379a000000000000000000000000000000000000000000000000000000000815260040161138390612e58565b60405180910390fd5b6113968383611dec565b905092915050565b5f60075f3373ffffffffffffffffffffffffffffffffffffffff1673ffffffffffffffffffffffffffffffffffffffff1681526020019081526020015f206002015f9054906101000a900460ff1661142b576040517f08c379a0000000000000000000000000000000000000000000000000000000008152600401611422906123e7565b60405180910390fd5b6114343361116d565b905090565b5f60015f8473ffffffffffffffffffffffffffffffffffffffff1673ffffffffffffffffffffffffffffffffffffffff1681526020019081526020015f205f8373ffffffffffffffffffffffffffffffffffffffff1673ffffffffffffffffffffffffffffffffffffffff1681526020019081526020015f2054905092915050565b6007602052805f5260405f205f91509050805f015f9054906101000a900473ffffffffffffffffffffffffffffffffffffffff16908060010180546114ff9061236d565b80601f016020809104026020016040519081016040528092919081815260200182805461152b9061236d565b80156115765780601f1061154d57610100808354040283529160200191611576565b820191905f5260205f20905b81548152906001019060200180831161155957829003601f168201915b505050505090806002015f9054906101000a900460ff16908060020160019054906101000a900460ff16905084565b6115ad611ae8565b5f73ffffffffffffffffffffffffffffffffffffffff168173ffffffffffffffffffffffffffffffffffffffff160361161b576040517f08c379a000000000000000000000000000000000000000000000000000000000815260040161161290612ee6565b60405180910390fd5b61162481611b66565b50565b5f33905090565b5f73ffffffffffffffffffffffffffffffffffffffff168373ffffffffffffffffffffffffffffffffffffffff160361169c576040517f08c379a000000000000000000000000000000000000000000000000000000000815260040161169390612f74565b60405180910390fd5b5f73ffffffffffffffffffffffffffffffffffffffff168273ffffffffffffffffffffffffffffffffffffffff160361170a576040517f08c379a000000000000000000000000000000000000000000000000000000000815260040161170190613002565b60405180910390fd5b8060015f8573ffffffffffffffffffffffffffffffffffffffff1673ffffffffffffffffffffffffffffffffffffffff1681526020019081526020015f205f8473ffffffffffffffffffffffffffffffffffffffff1673ffffffffffffffffffffffffffffffffffffffff1681526020019081526020015f20819055508173ffffffffffffffffffffffffffffffffffffffff168373ffffffffffffffffffffffffffffffffffffffff167f8c5be1e5ebec7d5bd14f71427d1e84f3dd0314c0f7b2291e5b200ac8c7c3b925836040516117e49190611fe0565b60405180910390a3505050565b5f6117fc8484611439565b90507fffffffffffffffffffffffffffffffffffffffffffffffffffffffffffffffff81146118765781811015611868576040517f08c379a000000000000000000000000000000000000000000000000000000000815260040161185f9061306a565b60405180910390fd5b611875848484840361162e565b5b50505050565b5f73ffffffffffffffffffffffffffffffffffffffff168373ffffffffffffffffffffffffffffffffffffffff16036118ea576040517f08c379a00000000000000000000000000000000000000000000000000000000081526004016118e1906130f8565b60405180910390fd5b5f73ffffffffffffffffffffffffffffffffffffffff168273ffffffffffffffffffffffffffffffffffffffff1603611958576040517f08c379a000000000000000000000000000000000000000000000000000000000815260040161194f90613186565b60405180910390fd5b611963838383611e0e565b5f805f8573ffffffffffffffffffffffffffffffffffffffff1673ffffffffffffffffffffffffffffffffffffffff1681526020019081526020015f20549050818110156119e6576040517f08c379a00000000000000000000000000000000000000000000000000000000081526004016119dd90613214565b60405180910390fd5b8181035f808673ffffffffffffffffffffffffffffffffffffffff1673ffffffffffffffffffffffffffffffffffffffff1681526020019081526020015f2081905550815f808573ffffffffffffffffffffffffffffffffffffffff1673ffffffffffffffffffffffffffffffffffffffff1681526020019081526020015f205f82825401925050819055508273ffffffffffffffffffffffffffffffffffffffff168473ffffffffffffffffffffffffffffffffffffffff167fddf252ad1be2c89b69c2b068fc378daa952ba7f163c4a11628f55a4df523b3ef84604051611acf9190611fe0565b60405180910390a3611ae2848484611e13565b50505050565b611af0611627565b73ffffffffffffffffffffffffffffffffffffffff16611b0e6111d2565b73ffffffffffffffffffffffffffffffffffffffff1614611b64576040517f08c379a0000000000000000000000000000000000000000000000000000000008152600401611b5b9061327c565b60405180910390fd5b565b5f60055f9054906101000a900473ffffffffffffffffffffffffffffffffffffffff1690508160055f6101000a81548173ffffffffffffffffffffffffffffffffffffffff021916908373ffffffffffffffffffffffffffffffffffffffff1602179055508173ffffffffffffffffffffffffffffffffffffffff168173ffffffffffffffffffffffffffffffffffffffff167f8be0079c531659141344cd1fd0a4f28419497f9722a3daafe3b4186f6b6457e060405160405180910390a35050565b5f73ffffffffffffffffffffffffffffffffffffffff168273ffffffffffffffffffffffffffffffffffffffff1603611c97576040517f08c379a0000000000000000000000000000000000000000000000000000000008152600401611c8e9061330a565b60405180910390fd5b611ca2825f83611e0e565b5f805f8473ffffffffffffffffffffffffffffffffffffffff1673ffffffffffffffffffffffffffffffffffffffff1681526020019081526020015f2054905081811015611d25576040517f08c379a0000000000000000000000000000000000000000000000000000000008152600401611d1c90613398565b60405180910390fd5b8181035f808573ffffffffffffffffffffffffffffffffffffffff1673ffffffffffffffffffffffffffffffffffffffff1681526020019081526020015f20819055508160025f82825403925050819055505f73ffffffffffffffffffffffffffffffffffffffff168373ffffffffffffffffffffffffffffffffffffffff167fddf252ad1be2c89b69c2b068fc378daa952ba7f163c4a11628f55a4df523b3ef84604051611dd49190611fe0565b60405180910390a3611de7835f84611e13565b505050565b5f80611df6611627565b9050611e0381858561187c565b600191505092915050565b505050565b505050565b5f81519050919050565b5f82825260208201905092915050565b5f5b83811015611e4f578082015181840152602081019050611e34565b5f8484015250505050565b5f601f19601f8301169050919050565b5f611e7482611e18565b611e7e8185611e22565b9350611e8e818560208601611e32565b611e9781611e5a565b840191505092915050565b5f6020820190508181035f830152611eba8184611e6a565b905092915050565b5f604051905090565b5f80fd5b5f80fd5b5f73ffffffffffffffffffffffffffffffffffffffff82169050919050565b5f611efc82611ed3565b9050919050565b611f0c81611ef2565b8114611f16575f80fd5b50565b5f81359050611f2781611f03565b92915050565b5f819050919050565b611f3f81611f2d565b8114611f49575f80fd5b50565b5f81359050611f5a81611f36565b92915050565b5f8060408385031215611f7657611f75611ecb565b5b5f611f8385828601611f19565b9250506020611f9485828601611f4c565b9150509250929050565b5f8115159050919050565b611fb281611f9e565b82525050565b5f602082019050611fcb5f830184611fa9565b92915050565b611fda81611f2d565b82525050565b5f602082019050611ff35f830184611fd1565b92915050565b5f6020828403121561200e5761200d611ecb565b5b5f61201b84828501611f4c565b91505092915050565b5f805f6060848603121561203b5761203a611ecb565b5b5f61204886828701611f19565b935050602061205986828701611f19565b925050604061206a86828701611f4c565b9150509250925092565b5f60ff82169050919050565b61208981612074565b82525050565b5f6020820190506120a25f830184612080565b92915050565b6120b181611ef2565b82525050565b5f6080820190506120ca5f8301876120a8565b6120d76020830186611fd1565b81810360408301526120e98185611e6a565b90506120f86060830184611fd1565b95945050505050565b5f80fd5b5f80fd5b7f4e487b71000000000000000000000000000000000000000000000000000000005f52604160045260245ffd5b61213f82611e5a565b810181811067ffffffffffffffff8211171561215e5761215d612109565b5b80604052505050565b5f612170611ec2565b905061217c8282612136565b919050565b5f67ffffffffffffffff82111561219b5761219a612109565b5b6121a482611e5a565b9050602081019050919050565b828183375f83830152505050565b5f6121d16121cc84612181565b612167565b9050828152602081018484840111156121ed576121ec612105565b5b6121f88482856121b1565b509392505050565b5f82601f83011261221457612213612101565b5b81356122248482602086016121bf565b91505092915050565b5f6020828403121561224257612241611ecb565b5b5f82013567ffffffffffffffff81111561225f5761225e611ecf565b5b61226b84828501612200565b91505092915050565b5f6020828403121561228957612288611ecb565b5b5f61229684828501611f19565b91505092915050565b5f6020820190506122b25f8301846120a8565b92915050565b5f80604083850312156122ce576122cd611ecb565b5b5f6122db85828601611f19565b92505060206122ec85828601611f19565b9150509250929050565b5f6080820190506123095f8301876120a8565b818103602083015261231b8186611e6a565b905061232a6040830185611fa9565b6123376060830184611fa9565b95945050505050565b7f4e487b71000000000000000000000000000000000000000000000000000000005f52602260045260245ffd5b5f600282049050600182168061238457607f821691505b60208210810361239757612396612340565b5b50919050565b7f596f7520617265206e6f742072656769737465726564210000000000000000005f82015250565b5f6123d1601783611e22565b91506123dc8261239d565b602082019050919050565b5f6020820190508181035f8301526123fe816123c5565b9050919050565b7f4974656d20646f6573206e6f74206578697374210000000000000000000000005f82015250565b5f612439601483611e22565b915061244482612405565b602082019050919050565b5f6020820190508181035f8301526124668161242d565b9050919050565b7f496e73756666756369656e742062616c616e63650000000000000000000000005f82015250565b5f6124a1601483611e22565b91506124ac8261246d565b602082019050919050565b5f6020820190508181035f8301526124ce81612495565b9050919050565b7f52656465656d206661696c6564210000000000000000000000000000000000005f82015250565b5f612509600e83611e22565b9150612514826124d5565b602082019050919050565b5f6020820190508181035f830152612536816124fd565b9050919050565b5f819050815f5260205f209050919050565b5f815461255b8161236d565b6125658186611e22565b9450600182165f811461257f5760018114612595576125c7565b60ff1983168652811515602002860193506125c7565b61259e8561253d565b5f5b838110156125bf578154818901526001820191506020810190506125a0565b808801955050505b50505092915050565b5f6060820190506125e35f8301866120a8565b6125f06020830185611fd1565b8181036040830152612602818461254f565b9050949350505050565b7f4e487b71000000000000000000000000000000000000000000000000000000005f52601160045260245ffd5b5f61264382611f2d565b915061264e83611f2d565b92508282019050808211156126665761266561260c565b5b92915050565b7f41646472657373205a65726f206e6f7420616c6c6f77656400000000000000005f82015250565b5f6126a0601883611e22565b91506126ab8261266c565b602082019050919050565b5f6020820190508181035f8301526126cd81612694565b9050919050565b7f48617320636c61696d656420616c7265616479210000000000000000000000005f82015250565b5f612708601483611e22565b9150612713826126d4565b602082019050919050565b5f6020820190508181035f830152612735816126fc565b9050919050565b7f436c61696d206661696c656421000000000000000000000000000000000000005f82015250565b5f612770600d83611e22565b915061277b8261273c565b602082019050919050565b5f6020820190508181035f83015261279d81612764565b9050919050565b5f6040820190506127b75f8301856120a8565b6127c46020830184611fd1565b9392505050565b7f526567697374726174696f6e206973207374696c6c206f6e21000000000000005f82015250565b5f6127ff601983611e22565b915061280a826127cb565b602082019050919050565b5f6020820190508181035f83015261282c816127f3565b9050919050565b7f4e6f20706c6179657220686173207265676973746572656421000000000000005f82015250565b5f612867601983611e22565b915061287282612833565b602082019050919050565b5f6020820190508181035f8301526128948161285b565b9050919050565b7f4e487b71000000000000000000000000000000000000000000000000000000005f52603260045260245ffd5b5f6128d282611f2d565b91507fffffffffffffffffffffffffffffffffffffffffffffffffffffffffffffffff82036129045761290361260c565b5b600182019050919050565b7f526567697374726174696f6e20636c6f736564210000000000000000000000005f82015250565b5f612943601483611e22565b915061294e8261290f565b602082019050919050565b5f6020820190508181035f83015261297081612937565b9050919050565b7f596f7520686176652072656769737465726564210000000000000000000000005f82015250565b5f6129ab601483611e22565b91506129b682612977565b602082019050919050565b5f6020820190508181035f8301526129d88161299f565b9050919050565b5f6020601f8301049050919050565b5f82821b905092915050565b5f60088302612a297fffffffffffffffffffffffffffffffffffffffffffffffffffffffffffffffff826129ee565b612a3386836129ee565b95508019841693508086168417925050509392505050565b5f819050919050565b5f612a6e612a69612a6484611f2d565b612a4b565b611f2d565b9050919050565b5f819050919050565b612a8783612a54565b612a9b612a9382612a75565b8484546129fa565b825550505050565b5f90565b612aaf612aa3565b612aba818484612a7e565b505050565b5b81811015612add57612ad25f82612aa7565b600181019050612ac0565b5050565b601f821115612b2257612af38161253d565b612afc846129df565b81016020851015612b0b578190505b612b1f612b17856129df565b830182612abf565b50505b505050565b5f82821c905092915050565b5f612b425f1984600802612b27565b1980831691505092915050565b5f612b5a8383612b33565b9150826002028217905092915050565b612b7382611e18565b67ffffffffffffffff811115612b8c57612b8b612109565b5b612b96825461236d565b612ba1828285612ae1565b5f60209050601f831160018114612bd2575f8415612bc0578287015190505b612bca8582612b4f565b865550612c31565b601f198416612be08661253d565b5f5b82811015612c0757848901518255600182019150602085019450602081019050612be2565b86831015612c245784890151612c20601f891682612b33565b8355505b6001600288020188555050505b505050505050565b5f81549050612c478161236d565b9050919050565b818103612c5c575050612d31565b612c6582612c39565b67ffffffffffffffff811115612c7e57612c7d612109565b5b612c88825461236d565b612c93828285612ae1565b5f601f831160018114612cc0575f8415612cae578287015490505b612cb88582612b4f565b865550612d2a565b601f198416612cce8761253d565b9650612cd98661253d565b5f5b82811015612d0057848901548255600182019150600185019450602081019050612cdb565b86831015612d1d5784890154612d19601f891682612b33565b8355505b6001600288020188555050505b5050505050505b565b5f604082019050612d465f8301856120a8565b612d536020830184611fa9565b9392505050565b7f45524332303a2064656372656173656420616c6c6f77616e63652062656c6f775f8201527f207a65726f000000000000000000000000000000000000000000000000000000602082015250565b5f612db4602583611e22565b9150612dbf82612d5a565b604082019050919050565b5f6020820190508181035f830152612de181612da8565b9050919050565b7f526563697069656e74206973206e6f742061207265676973746572656420706c5f8201527f6179657221000000000000000000000000000000000000000000000000000000602082015250565b5f612e42602583611e22565b9150612e4d82612de8565b604082019050919050565b5f6020820190508181035f830152612e6f81612e36565b9050919050565b7f4f776e61626c653a206e6577206f776e657220697320746865207a65726f20615f8201527f6464726573730000000000000000000000000000000000000000000000000000602082015250565b5f612ed0602683611e22565b9150612edb82612e76565b604082019050919050565b5f6020820190508181035f830152612efd81612ec4565b9050919050565b7f45524332303a20617070726f76652066726f6d20746865207a65726f206164645f8201527f7265737300000000000000000000000000000000000000000000000000000000602082015250565b5f612f5e602483611e22565b9150612f6982612f04565b604082019050919050565b5f6020820190508181035f830152612f8b81612f52565b9050919050565b7f45524332303a20617070726f766520746f20746865207a65726f2061646472655f8201527f7373000000000000000000000000000000000000000000000000000000000000602082015250565b5f612fec602283611e22565b9150612ff782612f92565b604082019050919050565b5f6020820190508181035f83015261301981612fe0565b9050919050565b7f45524332303a20696e73756666696369656e7420616c6c6f77616e63650000005f82015250565b5f613054601d83611e22565b915061305f82613020565b602082019050919050565b5f6020820190508181035f83015261308181613048565b9050919050565b7f45524332303a207472616e736665722066726f6d20746865207a65726f2061645f8201527f6472657373000000000000000000000000000000000000000000000000000000602082015250565b5f6130e2602583611e22565b91506130ed82613088565b604082019050919050565b5f6020820190508181035f83015261310f816130d6565b9050919050565b7f45524332303a207472616e7366657220746f20746865207a65726f20616464725f8201527f6573730000000000000000000000000000000000000000000000000000000000602082015250565b5f613170602383611e22565b915061317b82613116565b604082019050919050565b5f6020820190508181035f83015261319d81613164565b9050919050565b7f45524332303a207472616e7366657220616d6f756e74206578636565647320625f8201527f616c616e63650000000000000000000000000000000000000000000000000000602082015250565b5f6131fe602683611e22565b9150613209826131a4565b604082019050919050565b5f6020820190508181035f83015261322b816131f2565b9050919050565b7f4f776e61626c653a2063616c6c6572206973206e6f7420746865206f776e65725f82015250565b5f613266602083611e22565b915061327182613232565b602082019050919050565b5f6020820190508181035f8301526132938161325a565b9050919050565b7f45524332303a206275726e2066726f6d20746865207a65726f206164647265735f8201527f7300000000000000000000000000000000000000000000000000000000000000602082015250565b5f6132f4602183611e22565b91506132ff8261329a565b604082019050919050565b5f6020820190508181035f830152613321816132e8565b9050919050565b7f45524332303a206275726e20616d6f756e7420657863656564732062616c616e5f8201527f6365000000000000000000000000000000000000000000000000000000000000602082015250565b5f613382602283611e22565b915061338d82613328565b604082019050919050565b5f6020820190508181035f8301526133af81613376565b905091905056fea2646970667358221220e8bdd15f7b9c214001cbd29bb893d0364759c8764596c7260c8d818e0e26ec7064736f6c63430008140033",
  "linkReferences": {},
  "deployedLinkReferences": {}
}