{
  "_format": "hh-sol-artifact-1",
  "contractName": "DegenToken",
  "sourceName": "contracts/DegenToken.sol",
  "abi": [
    {
      "inputs": [],
      "stateMutability": "nonpayable",
      "type": "constructor"
    },
    {
      "inputs": [],
      "name": "CANNOT_TRANSFER_ADDRESS_ZERO",
      "type": "error"
    },
    {
      "inputs": [],
      "name": "INSUFFICIENT_BALANCE",
      "type": "error"
    },
    {
      "inputs": [],
      "name": "PLAYER_DOES_NOT_EXIST",
      "type": "error"
    },
    {
      "inputs": [],
      "name": "PLAYER_NOT_REGISTERED",
      "type": "error"
    },
    {
      "inputs": [],
      "name": "PLAYER_NOT_SUSPENDED",
      "type": "error"
    },
    {
      "inputs": [],
      "name": "TRANSFER_FAILED",
      "type": "error"
    },
    {
      "inputs": [],
      "name": "YOU_ARE_NOT_REGISTERED",
      "type": "error"
    },
    {
      "inputs": [],
      "name": "YOU_HAVE_REGISTERED",
      "type": "error"
    },
    {
      "anonymous": false,
      "inputs": [
        {
          "indexed": true,
          "internalType": "address",
          "name": "owner",
          "type": "address"
        },
        {
          "indexed": true,
          "internalType": "address",
          "name": "spender",
          "type": "address"
        },
        {
          "indexed": false,
          "internalType": "uint256",
          "name": "value",
          "type": "uint256"
        }
      ],
      "name": "Approval",
      "type": "event"
    },
    {
      "anonymous": false,
      "inputs": [
        {
          "indexed": false,
          "internalType": "address",
          "name": "owner",
          "type": "address"
        },
        {
          "indexed": false,
          "internalType": "string",
          "name": "_itemName",
          "type": "string"
        },
        {
          "indexed": false,
          "internalType": "bytes32",
          "name": "_itemId",
          "type": "bytes32"
        },
        {
          "indexed": false,
          "internalType": "uint256",
          "name": "_amount",
          "type": "uint256"
        }
      ],
      "name": "ItemCreated",
      "type": "event"
    },
    {
      "anonymous": false,
      "inputs": [
        {
          "indexed": false,
          "internalType": "address",
          "name": "newOwner",
          "type": "address"
        },
        {
          "indexed": false,
          "internalType": "bytes32",
          "name": "_itemId",
          "type": "bytes32"
        },
        {
          "indexed": false,
          "internalType": "string",
          "name": "itemName",
          "type": "string"
        }
      ],
      "name": "ItemReedemed",
      "type": "event"
    },
    {
      "anonymous": false,
      "inputs": [
        {
          "indexed": true,
          "internalType": "address",
          "name": "previousOwner",
          "type": "address"
        },
        {
          "indexed": true,
          "internalType": "address",
          "name": "newOwner",
          "type": "address"
        }
      ],
      "name": "OwnershipTransferred",
      "type": "event"
    },
    {
      "anonymous": false,
      "inputs": [
        {
          "indexed": false,
          "internalType": "address",
          "name": "sender",
          "type": "address"
        },
        {
          "indexed": false,
          "internalType": "address",
          "name": "recipient",
          "type": "address"
        },
        {
          "indexed": false,
          "internalType": "uint256",
          "name": "amount",
          "type": "uint256"
        }
      ],
      "name": "PlayerP2P",
      "type": "event"
    },
    {
      "anonymous": false,
      "inputs": [
        {
          "indexed": false,
          "internalType": "address",
          "name": "player",
          "type": "address"
        },
        {
          "indexed": false,
          "internalType": "bool",
          "name": "success",
          "type": "bool"
        }
      ],
      "name": "PlayerRegisters",
      "type": "event"
    },
    {
      "anonymous": false,
      "inputs": [
        {
          "indexed": false,
          "internalType": "address",
          "name": "owner",
          "type": "address"
        },
        {
          "indexed": false,
          "internalType": "uint256",
          "name": "_amount",
          "type": "uint256"
        }
      ],
      "name": "TokenBurnt",
      "type": "event"
    },
    {
      "anonymous": false,
      "inputs": [
        {
          "indexed": true,
          "internalType": "address",
          "name": "from",
          "type": "address"
        },
        {
          "indexed": true,
          "internalType": "address",
          "name": "to",
          "type": "address"
        },
        {
          "indexed": false,
          "internalType": "uint256",
          "name": "value",
          "type": "uint256"
        }
      ],
      "name": "Transfer",
      "type": "event"
    },
    {
      "inputs": [
        {
          "internalType": "string",
          "name": "_itemName",
          "type": "string"
        },
        {
          "internalType": "uint256",
          "name": "_amount",
          "type": "uint256"
        }
      ],
      "name": "OwnerAddGameItem",
      "outputs": [],
      "stateMutability": "nonpayable",
      "type": "function"
    },
    {
      "inputs": [
        {
          "internalType": "address",
          "name": "owner",
          "type": "address"
        },
        {
          "internalType": "address",
          "name": "spender",
          "type": "address"
        }
      ],
      "name": "allowance",
      "outputs": [
        {
          "internalType": "uint256",
          "name": "",
          "type": "uint256"
        }
      ],
      "stateMutability": "view",
      "type": "function"
    },
    {
      "inputs": [
        {
          "internalType": "address",
          "name": "spender",
          "type": "address"
        },
        {
          "internalType": "uint256",
          "name": "amount",
          "type": "uint256"
        }
      ],
      "name": "approve",
      "outputs": [
        {
          "internalType": "bool",
          "name": "",
          "type": "bool"
        }
      ],
      "stateMutability": "nonpayable",
      "type": "function"
    },
    {
      "inputs": [
        {
          "internalType": "address",
          "name": "account",
          "type": "address"
        }
      ],
      "name": "balanceOf",
      "outputs": [
        {
          "internalType": "uint256",
          "name": "",
          "type": "uint256"
        }
      ],
      "stateMutability": "view",
      "type": "function"
    },
    {
      "inputs": [],
      "name": "decimals",
      "outputs": [
        {
          "internalType": "uint8",
          "name": "",
          "type": "uint8"
        }
      ],
      "stateMutability": "view",
      "type": "function"
    },
    {
      "inputs": [
        {
          "internalType": "address",
          "name": "spender",
          "type": "address"
        },
        {
          "internalType": "uint256",
          "name": "subtractedValue",
          "type": "uint256"
        }
      ],
      "name": "decreaseAllowance",
      "outputs": [
        {
          "internalType": "bool",
          "name": "",
          "type": "bool"
        }
      ],
      "stateMutability": "nonpayable",
      "type": "function"
    },
    {
      "inputs": [
        {
          "internalType": "bytes32",
          "name": "_itemId",
          "type": "bytes32"
        }
      ],
      "name": "getGameItem",
      "outputs": [
        {
          "components": [
            {
              "internalType": "string",
              "name": "itemName",
              "type": "string"
            },
            {
              "internalType": "address",
              "name": "owner",
              "type": "address"
            },
            {
              "internalType": "bytes32",
              "name": "_itemId",
              "type": "bytes32"
            },
            {
              "internalType": "uint256",
              "name": "amount",
              "type": "uint256"
            }
          ],
          "internalType": "struct DegenToken.GameItem",
          "name": "_gameItem",
          "type": "tuple"
        }
      ],
      "stateMutability": "view",
      "type": "function"
    },
    {
      "inputs": [
        {
          "internalType": "address",
          "name": "spender",
          "type": "address"
        },
        {
          "internalType": "uint256",
          "name": "addedValue",
          "type": "uint256"
        }
      ],
      "name": "increaseAllowance",
      "outputs": [
        {
          "internalType": "bool",
          "name": "",
          "type": "bool"
        }
      ],
      "stateMutability": "nonpayable",
      "type": "function"
    },
    {
      "inputs": [
        {
          "internalType": "address",
          "name": "player",
          "type": "address"
        }
      ],
      "name": "lockPlayerAccount",
      "outputs": [],
      "stateMutability": "nonpayable",
      "type": "function"
    },
    {
      "inputs": [
        {
          "internalType": "address",
          "name": "_to",
          "type": "address"
        },
        {
          "internalType": "uint256",
          "name": "_amount",
          "type": "uint256"
        }
      ],
      "name": "mint",
      "outputs": [],
      "stateMutability": "nonpayable",
      "type": "function"
    },
    {
      "inputs": [],
      "name": "name",
      "outputs": [
        {
          "internalType": "string",
          "name": "",
          "type": "string"
        }
      ],
      "stateMutability": "view",
      "type": "function"
    },
    {
      "inputs": [],
      "name": "owner",
      "outputs": [
        {
          "internalType": "address",
          "name": "",
          "type": "address"
        }
      ],
      "stateMutability": "view",
      "type": "function"
    },
    {
      "inputs": [
        {
          "internalType": "uint256",
          "name": "_amount",
          "type": "uint256"
        }
      ],
      "name": "playerBurnsTheirToken",
      "outputs": [],
      "stateMutability": "nonpayable",
      "type": "function"
    },
    {
      "inputs": [],
      "name": "playerCheckTokenBalance",
      "outputs": [
        {
          "internalType": "uint256",
          "name": "",
          "type": "uint256"
        }
      ],
      "stateMutability": "view",
      "type": "function"
    },
    {
      "inputs": [
        {
          "internalType": "address",
          "name": "_recipient",
          "type": "address"
        },
        {
          "internalType": "uint256",
          "name": "_amount",
          "type": "uint256"
        }
      ],
      "name": "playerP2PTransfer",
      "outputs": [
        {
          "internalType": "bool",
          "name": "",
          "type": "bool"
        }
      ],
      "stateMutability": "nonpayable",
      "type": "function"
    },
    {
      "inputs": [
        {
          "internalType": "bytes32",
          "name": "_itemId",
          "type": "bytes32"
        }
      ],
      "name": "playerReedemItems",
      "outputs": [],
      "stateMutability": "nonpayable",
      "type": "function"
    },
    {
      "inputs": [
        {
          "internalType": "string",
          "name": "_playerName",
          "type": "string"
        }
      ],
      "name": "playerRegister",
      "outputs": [],
      "stateMutability": "nonpayable",
      "type": "function"
    },
    {
      "inputs": [
        {
          "internalType": "address",
          "name": "player",
          "type": "address"
        }
      ],
      "name": "releasePlayerAccount",
      "outputs": [],
      "stateMutability": "nonpayable",
      "type": "function"
    },
    {
      "inputs": [],
      "name": "renounceOwnership",
      "outputs": [],
      "stateMutability": "nonpayable",
      "type": "function"
    },
    {
      "inputs": [],
      "name": "symbol",
      "outputs": [
        {
          "internalType": "string",
          "name": "",
          "type": "string"
        }
      ],
      "stateMutability": "view",
      "type": "function"
    },
    {
      "inputs": [],
      "name": "totalSupply",
      "outputs": [
        {
          "internalType": "uint256",
          "name": "",
          "type": "uint256"
        }
      ],
      "stateMutability": "view",
      "type": "function"
    },
    {
      "inputs": [
        {
          "internalType": "address",
          "name": "to",
          "type": "address"
        },
        {
          "internalType": "uint256",
          "name": "amount",
          "type": "uint256"
        }
      ],
      "name": "transfer",
      "outputs": [
        {
          "internalType": "bool",
          "name": "",
          "type": "bool"
        }
      ],
      "stateMutability": "nonpayable",
      "type": "function"
    },
    {
      "inputs": [
        {
          "internalType": "address",
          "name": "from",
          "type": "address"
        },
        {
          "internalType": "address",
          "name": "to",
          "type": "address"
        },
        {
          "internalType": "uint256",
          "name": "amount",
          "type": "uint256"
        }
      ],
      "name": "transferFrom",
      "outputs": [
        {
          "internalType": "bool",
          "name": "",
          "type": "bool"
        }
      ],
      "stateMutability": "nonpayable",
      "type": "function"
    },
    {
      "inputs": [
        {
          "internalType": "address",
          "name": "newOwner",
          "type": "address"
        }
      ],
      "name": "transferOwnership",
      "outputs": [],
      "stateMutability": "nonpayable",
      "type": "function"
    }
  ],
  "bytecode": "0x60806040523480156200001157600080fd5b506040518060400160405280600581526020017f446567656e0000000000000000000000000000000000000000000000000000008152506040518060400160405280600381526020017f44474e000000000000000000000000000000000000000000000000000000000081525081600390816200008f919062000412565b508060049081620000a1919062000412565b505050620000c4620000b8620000ca60201b60201c565b620000d260201b60201c565b620004f9565b600033905090565b6000600560009054906101000a900473ffffffffffffffffffffffffffffffffffffffff16905081600560006101000a81548173ffffffffffffffffffffffffffffffffffffffff021916908373ffffffffffffffffffffffffffffffffffffffff1602179055508173ffffffffffffffffffffffffffffffffffffffff168173ffffffffffffffffffffffffffffffffffffffff167f8be0079c531659141344cd1fd0a4f28419497f9722a3daafe3b4186f6b6457e060405160405180910390a35050565b600081519050919050565b7f4e487b7100000000000000000000000000000000000000000000000000000000600052604160045260246000fd5b7f4e487b7100000000000000000000000000000000000000000000000000000000600052602260045260246000fd5b600060028204905060018216806200021a57607f821691505b60208210810362000230576200022f620001d2565b5b50919050565b60008190508160005260206000209050919050565b60006020601f8301049050919050565b600082821b905092915050565b6000600883026200029a7fffffffffffffffffffffffffffffffffffffffffffffffffffffffffffffffff826200025b565b620002a686836200025b565b95508019841693508086168417925050509392505050565b6000819050919050565b6000819050919050565b6000620002f3620002ed620002e784620002be565b620002c8565b620002be565b9050919050565b6000819050919050565b6200030f83620002d2565b620003276200031e82620002fa565b84845462000268565b825550505050565b600090565b6200033e6200032f565b6200034b81848462000304565b505050565b5b8181101562000373576200036760008262000334565b60018101905062000351565b5050565b601f821115620003c2576200038c8162000236565b62000397846200024b565b81016020851015620003a7578190505b620003bf620003b6856200024b565b83018262000350565b50505b505050565b600082821c905092915050565b6000620003e760001984600802620003c7565b1980831691505092915050565b6000620004028383620003d4565b9150826002028217905092915050565b6200041d8262000198565b67ffffffffffffffff811115620004395762000438620001a3565b5b62000445825462000201565b6200045282828562000377565b600060209050601f8311600181146200048a576000841562000475578287015190505b620004818582620003f4565b865550620004f1565b601f1984166200049a8662000236565b60005b82811015620004c4578489015182556001820191506020850194506020810190506200049d565b86831015620004e45784890151620004e0601f891682620003d4565b8355505b6001600288020188555050505b505050505050565b61314180620005096000396000f3fe608060405234801561001057600080fd5b50600436106101585760003560e01c80638da5cb5b116100c3578063ad1b9ea81161007c578063ad1b9ea8146103db578063c4cd7c25146103f7578063d37c44de14610427578063dd62ed3e14610443578063e91c12a814610473578063f2fde38b1461048f57610158565b80638da5cb5b146103055780638e45ab5f146103235780639116983a1461034157806395d89b411461035d578063a457c2d71461037b578063a9059cbb146103ab57610158565b80633950935111610115578063395093511461023357806340c10f191461026357806358edfd0e1461027f5780635aae1af91461029b57806370a08231146102cb578063715018a6146102fb57610158565b806306fdde031461015d578063095ea7b31461017b57806318160ddd146101ab57806323b872dd146101c957806330bc8eeb146101f9578063313ce56714610215575b600080fd5b6101656104ab565b6040516101729190611ce6565b60405180910390f35b61019560048036038101906101909190611db0565b61053d565b6040516101a29190611e0b565b60405180910390f35b6101b3610560565b6040516101c09190611e35565b60405180910390f35b6101e360048036038101906101de9190611e50565b61056a565b6040516101f09190611e0b565b60405180910390f35b610213600480360381019061020e9190611ea3565b610599565b005b61021d6105e7565b60405161022a9190611eec565b60405180910390f35b61024d60048036038101906102489190611db0565b6105f0565b60405161025a9190611e0b565b60405180910390f35b61027d60048036038101906102789190611db0565b610627565b005b6102996004803603810190610294919061203c565b6106c3565b005b6102b560048036038101906102b091906120bb565b61087e565b6040516102c291906121c2565b60405180910390f35b6102e560048036038101906102e091906121e4565b6109af565b6040516102f29190611e35565b60405180910390f35b6103036109f7565b005b61030d610a0b565b60405161031a9190612220565b60405180910390f35b61032b610a35565b6040516103389190611e35565b60405180910390f35b61035b6004803603810190610356919061229b565b610a4d565b005b610365610b4a565b6040516103729190611ce6565b60405180910390f35b61039560048036038101906103909190611db0565b610bdc565b6040516103a29190611e0b565b60405180910390f35b6103c560048036038101906103c09190611db0565b610c53565b6040516103d29190611e0b565b60405180910390f35b6103f560048036038101906103f091906120bb565b610c76565b005b610411600480360381019061040c9190611db0565b610e55565b60405161041e9190611e0b565b60405180910390f35b610441600480360381019061043c91906121e4565b610fd6565b005b61045d600480360381019061045891906122fb565b61108a565b60405161046a9190611e35565b60405180910390f35b61048d600480360381019061048891906121e4565b611111565b005b6104a960048036038101906104a491906121e4565b6111c6565b005b6060600380546104ba9061236a565b80601f01602080910402602001604051908101604052809291908181526020018280546104e69061236a565b80156105335780601f1061050857610100808354040283529160200191610533565b820191906000526020600020905b81548152906001019060200180831161051657829003601f168201915b5050505050905090565b600080610548611249565b9050610555818585611251565b600191505092915050565b6000600254905090565b600080610575611249565b905061058285828561141a565b61058d8585856114a6565b60019150509392505050565b6105a161171c565b6105ab33826117a4565b7f1011952107dd9857c3fc7ee54aaef4f9565140a58923d80c6e15162f7d40a41533826040516105dc92919061239b565b60405180910390a150565b60006012905090565b6000806105fb611249565b905061061c81858561060d858961108a565b61061791906123f3565b611251565b600191505092915050565b61062f611971565b600660008373ffffffffffffffffffffffffffffffffffffffff1673ffffffffffffffffffffffffffffffffffffffff16815260200190815260200160002060020160009054906101000a900460ff166106b5576040517f4829676a00000000000000000000000000000000000000000000000000000000815260040160405180910390fd5b6106bf82826119ef565b5050565b600073ffffffffffffffffffffffffffffffffffffffff16600660003373ffffffffffffffffffffffffffffffffffffffff1673ffffffffffffffffffffffffffffffffffffffff16815260200190815260200160002060000160009054906101000a900473ffffffffffffffffffffffffffffffffffffffff1673ffffffffffffffffffffffffffffffffffffffff161461078b576040517f74a9ad6700000000000000000000000000000000000000000000000000000000815260040160405180910390fd5b6000600660003373ffffffffffffffffffffffffffffffffffffffff1673ffffffffffffffffffffffffffffffffffffffff1681526020019081526020016000209050338160000160006101000a81548173ffffffffffffffffffffffffffffffffffffffff021916908373ffffffffffffffffffffffffffffffffffffffff1602179055508181600101908161082291906125d3565b5060018160020160006101000a81548160ff0219169083151502179055507ffc22e72ee96f747b7b5c25b0397d9350b30042a2f512f624dabad9731aea62f83360016040516108729291906126a5565b60405180910390a15050565b610886611c15565b61088e61171c565b600760008381526020019081526020016000206040518060800160405290816000820180546108bc9061236a565b80601f01602080910402602001604051908101604052809291908181526020018280546108e89061236a565b80156109355780601f1061090a57610100808354040283529160200191610935565b820191906000526020600020905b81548152906001019060200180831161091857829003601f168201915b505050505081526020016001820160009054906101000a900473ffffffffffffffffffffffffffffffffffffffff1673ffffffffffffffffffffffffffffffffffffffff1673ffffffffffffffffffffffffffffffffffffffff168152602001600282015481526020016003820154815250509050919050565b60008060008373ffffffffffffffffffffffffffffffffffffffff1673ffffffffffffffffffffffffffffffffffffffff168152602001908152602001600020549050919050565b6109ff611971565b610a096000611b45565b565b6000600560009054906101000a900473ffffffffffffffffffffffffffffffffffffffff16905090565b6000610a3f61171c565b610a48336109af565b905090565b610a55611971565b6000838383604051602001610a6c9392919061271f565b6040516020818303038152906040528051906020012090506000600760008381526020019081526020016000209050308160010160006101000a81548173ffffffffffffffffffffffffffffffffffffffff021916908373ffffffffffffffffffffffffffffffffffffffff1602179055508181600201819055508484826000019182610afa929190612754565b508281600301819055507fd7eba8622da680461e268337110baca4fc86ec6d572970298bc1d023e6b1aac93086868587604051610b3b959493929190612860565b60405180910390a15050505050565b606060048054610b599061236a565b80601f0160208091040260200160405190810160405280929190818152602001828054610b859061236a565b8015610bd25780601f10610ba757610100808354040283529160200191610bd2565b820191906000526020600020905b815481529060010190602001808311610bb557829003601f168201915b5050505050905090565b600080610be7611249565b90506000610bf5828661108a565b905083811015610c3a576040517f08c379a0000000000000000000000000000000000000000000000000000000008152600401610c3190612920565b60405180910390fd5b610c478286868403611251565b60019250505092915050565b600080610c5e611249565b9050610c6b8185856114a6565b600191505092915050565b610c7e61171c565b600060076000838152602001908152602001600020905060008160030154905080610ca8336109af565b1015610ce0576040517f50b1f35600000000000000000000000000000000000000000000000000000000815260040160405180910390fd5b610cea3082610c53565b50338260010160006101000a81548173ffffffffffffffffffffffffffffffffffffffff021916908373ffffffffffffffffffffffffffffffffffffffff16021790555081600860003373ffffffffffffffffffffffffffffffffffffffff1673ffffffffffffffffffffffffffffffffffffffff168152602001908152602001600020600085815260200190815260200160002060008201816000019081610d939190612956565b506001820160009054906101000a900473ffffffffffffffffffffffffffffffffffffffff168160010160006101000a81548173ffffffffffffffffffffffffffffffffffffffff021916908373ffffffffffffffffffffffffffffffffffffffff16021790555060028201548160020155600382015481600301559050507fdd09b9e7a8bea07aa6fcb0f87c8dfaa89594ff8d77eeb1a58f54c1871844d7b6338484600001604051610e4893929190612ac2565b60405180910390a1505050565b6000610e5f61171c565b600073ffffffffffffffffffffffffffffffffffffffff168373ffffffffffffffffffffffffffffffffffffffff1603610ec5576040517f2d0369a800000000000000000000000000000000000000000000000000000000815260040160405180910390fd5b600660008473ffffffffffffffffffffffffffffffffffffffff1673ffffffffffffffffffffffffffffffffffffffff16815260200190815260200160002060020160009054906101000a900460ff16610f4b576040517f4829676a00000000000000000000000000000000000000000000000000000000815260040160405180910390fd5b610f558383610c53565b15610f9e577f185392c4c2490ced8afd2ace283eca2da212664d85373b20da81c0bc8b499716338484604051610f8d93929190612b00565b60405180910390a160019050610fd0565b6040517f3f4ab80e00000000000000000000000000000000000000000000000000000000815260040160405180910390fd5b92915050565b610fde611971565b6000600660008373ffffffffffffffffffffffffffffffffffffffff1673ffffffffffffffffffffffffffffffffffffffff16815260200190815260200160002090508060020160009054906101000a900460ff16611069576040517fc5e3efc500000000000000000000000000000000000000000000000000000000815260040160405180910390fd5b60008160020160006101000a81548160ff0219169083151502179055505050565b6000600160008473ffffffffffffffffffffffffffffffffffffffff1673ffffffffffffffffffffffffffffffffffffffff16815260200190815260200160002060008373ffffffffffffffffffffffffffffffffffffffff1673ffffffffffffffffffffffffffffffffffffffff16815260200190815260200160002054905092915050565b611119611971565b6000600660008373ffffffffffffffffffffffffffffffffffffffff1673ffffffffffffffffffffffffffffffffffffffff16815260200190815260200160002090508060020160009054906101000a900460ff16156111a5576040517f56704c9c00000000000000000000000000000000000000000000000000000000815260040160405180910390fd5b60018160020160006101000a81548160ff0219169083151502179055505050565b6111ce611971565b600073ffffffffffffffffffffffffffffffffffffffff168173ffffffffffffffffffffffffffffffffffffffff160361123d576040517f08c379a000000000000000000000000000000000000000000000000000000000815260040161123490612ba9565b60405180910390fd5b61124681611b45565b50565b600033905090565b600073ffffffffffffffffffffffffffffffffffffffff168373ffffffffffffffffffffffffffffffffffffffff16036112c0576040517f08c379a00000000000000000000000000000000000000000000000000000000081526004016112b790612c3b565b60405180910390fd5b600073ffffffffffffffffffffffffffffffffffffffff168273ffffffffffffffffffffffffffffffffffffffff160361132f576040517f08c379a000000000000000000000000000000000000000000000000000000000815260040161132690612ccd565b60405180910390fd5b80600160008573ffffffffffffffffffffffffffffffffffffffff1673ffffffffffffffffffffffffffffffffffffffff16815260200190815260200160002060008473ffffffffffffffffffffffffffffffffffffffff1673ffffffffffffffffffffffffffffffffffffffff168152602001908152602001600020819055508173ffffffffffffffffffffffffffffffffffffffff168373ffffffffffffffffffffffffffffffffffffffff167f8c5be1e5ebec7d5bd14f71427d1e84f3dd0314c0f7b2291e5b200ac8c7c3b9258360405161140d9190611e35565b60405180910390a3505050565b6000611426848461108a565b90507fffffffffffffffffffffffffffffffffffffffffffffffffffffffffffffffff81146114a05781811015611492576040517f08c379a000000000000000000000000000000000000000000000000000000000815260040161148990612d39565b60405180910390fd5b61149f8484848403611251565b5b50505050565b600073ffffffffffffffffffffffffffffffffffffffff168373ffffffffffffffffffffffffffffffffffffffff1603611515576040517f08c379a000000000000000000000000000000000000000000000000000000000815260040161150c90612dcb565b60405180910390fd5b600073ffffffffffffffffffffffffffffffffffffffff168273ffffffffffffffffffffffffffffffffffffffff1603611584576040517f08c379a000000000000000000000000000000000000000000000000000000000815260040161157b90612e5d565b60405180910390fd5b61158f838383611c0b565b60008060008573ffffffffffffffffffffffffffffffffffffffff1673ffffffffffffffffffffffffffffffffffffffff16815260200190815260200160002054905081811015611615576040517f08c379a000000000000000000000000000000000000000000000000000000000815260040161160c90612eef565b60405180910390fd5b8181036000808673ffffffffffffffffffffffffffffffffffffffff1673ffffffffffffffffffffffffffffffffffffffff16815260200190815260200160002081905550816000808573ffffffffffffffffffffffffffffffffffffffff1673ffffffffffffffffffffffffffffffffffffffff168152602001908152602001600020600082825401925050819055508273ffffffffffffffffffffffffffffffffffffffff168473ffffffffffffffffffffffffffffffffffffffff167fddf252ad1be2c89b69c2b068fc378daa952ba7f163c4a11628f55a4df523b3ef846040516117039190611e35565b60405180910390a3611716848484611c10565b50505050565b600660003373ffffffffffffffffffffffffffffffffffffffff1673ffffffffffffffffffffffffffffffffffffffff16815260200190815260200160002060020160009054906101000a900460ff166117a2576040517f3478e2d800000000000000000000000000000000000000000000000000000000815260040160405180910390fd5b565b600073ffffffffffffffffffffffffffffffffffffffff168273ffffffffffffffffffffffffffffffffffffffff1603611813576040517f08c379a000000000000000000000000000000000000000000000000000000000815260040161180a90612f81565b60405180910390fd5b61181f82600083611c0b565b60008060008473ffffffffffffffffffffffffffffffffffffffff1673ffffffffffffffffffffffffffffffffffffffff168152602001908152602001600020549050818110156118a5576040517f08c379a000000000000000000000000000000000000000000000000000000000815260040161189c90613013565b60405180910390fd5b8181036000808573ffffffffffffffffffffffffffffffffffffffff1673ffffffffffffffffffffffffffffffffffffffff1681526020019081526020016000208190555081600260008282540392505081905550600073ffffffffffffffffffffffffffffffffffffffff168373ffffffffffffffffffffffffffffffffffffffff167fddf252ad1be2c89b69c2b068fc378daa952ba7f163c4a11628f55a4df523b3ef846040516119589190611e35565b60405180910390a361196c83600084611c10565b505050565b611979611249565b73ffffffffffffffffffffffffffffffffffffffff16611997610a0b565b73ffffffffffffffffffffffffffffffffffffffff16146119ed576040517f08c379a00000000000000000000000000000000000000000000000000000000081526004016119e49061307f565b60405180910390fd5b565b600073ffffffffffffffffffffffffffffffffffffffff168273ffffffffffffffffffffffffffffffffffffffff1603611a5e576040517f08c379a0000000000000000000000000000000000000000000000000000000008152600401611a55906130eb565b60405180910390fd5b611a6a60008383611c0b565b8060026000828254611a7c91906123f3565b92505081905550806000808473ffffffffffffffffffffffffffffffffffffffff1673ffffffffffffffffffffffffffffffffffffffff168152602001908152602001600020600082825401925050819055508173ffffffffffffffffffffffffffffffffffffffff16600073ffffffffffffffffffffffffffffffffffffffff167fddf252ad1be2c89b69c2b068fc378daa952ba7f163c4a11628f55a4df523b3ef83604051611b2d9190611e35565b60405180910390a3611b4160008383611c10565b5050565b6000600560009054906101000a900473ffffffffffffffffffffffffffffffffffffffff16905081600560006101000a81548173ffffffffffffffffffffffffffffffffffffffff021916908373ffffffffffffffffffffffffffffffffffffffff1602179055508173ffffffffffffffffffffffffffffffffffffffff168173ffffffffffffffffffffffffffffffffffffffff167f8be0079c531659141344cd1fd0a4f28419497f9722a3daafe3b4186f6b6457e060405160405180910390a35050565b505050565b505050565b604051806080016040528060608152602001600073ffffffffffffffffffffffffffffffffffffffff16815260200160008019168152602001600081525090565b600081519050919050565b600082825260208201905092915050565b60005b83811015611c90578082015181840152602081019050611c75565b60008484015250505050565b6000601f19601f8301169050919050565b6000611cb882611c56565b611cc28185611c61565b9350611cd2818560208601611c72565b611cdb81611c9c565b840191505092915050565b60006020820190508181036000830152611d008184611cad565b905092915050565b6000604051905090565b600080fd5b600080fd5b600073ffffffffffffffffffffffffffffffffffffffff82169050919050565b6000611d4782611d1c565b9050919050565b611d5781611d3c565b8114611d6257600080fd5b50565b600081359050611d7481611d4e565b92915050565b6000819050919050565b611d8d81611d7a565b8114611d9857600080fd5b50565b600081359050611daa81611d84565b92915050565b60008060408385031215611dc757611dc6611d12565b5b6000611dd585828601611d65565b9250506020611de685828601611d9b565b9150509250929050565b60008115159050919050565b611e0581611df0565b82525050565b6000602082019050611e206000830184611dfc565b92915050565b611e2f81611d7a565b82525050565b6000602082019050611e4a6000830184611e26565b92915050565b600080600060608486031215611e6957611e68611d12565b5b6000611e7786828701611d65565b9350506020611e8886828701611d65565b9250506040611e9986828701611d9b565b9150509250925092565b600060208284031215611eb957611eb8611d12565b5b6000611ec784828501611d9b565b91505092915050565b600060ff82169050919050565b611ee681611ed0565b82525050565b6000602082019050611f016000830184611edd565b92915050565b600080fd5b600080fd5b7f4e487b7100000000000000000000000000000000000000000000000000000000600052604160045260246000fd5b611f4982611c9c565b810181811067ffffffffffffffff82111715611f6857611f67611f11565b5b80604052505050565b6000611f7b611d08565b9050611f878282611f40565b919050565b600067ffffffffffffffff821115611fa757611fa6611f11565b5b611fb082611c9c565b9050602081019050919050565b82818337600083830152505050565b6000611fdf611fda84611f8c565b611f71565b905082815260208101848484011115611ffb57611ffa611f0c565b5b612006848285611fbd565b509392505050565b600082601f83011261202357612022611f07565b5b8135612033848260208601611fcc565b91505092915050565b60006020828403121561205257612051611d12565b5b600082013567ffffffffffffffff8111156120705761206f611d17565b5b61207c8482850161200e565b91505092915050565b6000819050919050565b61209881612085565b81146120a357600080fd5b50565b6000813590506120b58161208f565b92915050565b6000602082840312156120d1576120d0611d12565b5b60006120df848285016120a6565b91505092915050565b600082825260208201905092915050565b600061210482611c56565b61210e81856120e8565b935061211e818560208601611c72565b61212781611c9c565b840191505092915050565b61213b81611d3c565b82525050565b61214a81612085565b82525050565b61215981611d7a565b82525050565b6000608083016000830151848203600086015261217c82826120f9565b91505060208301516121916020860182612132565b5060408301516121a46040860182612141565b5060608301516121b76060860182612150565b508091505092915050565b600060208201905081810360008301526121dc818461215f565b905092915050565b6000602082840312156121fa576121f9611d12565b5b600061220884828501611d65565b91505092915050565b61221a81611d3c565b82525050565b60006020820190506122356000830184612211565b92915050565b600080fd5b600080fd5b60008083601f84011261225b5761225a611f07565b5b8235905067ffffffffffffffff8111156122785761227761223b565b5b60208301915083600182028301111561229457612293612240565b5b9250929050565b6000806000604084860312156122b4576122b3611d12565b5b600084013567ffffffffffffffff8111156122d2576122d1611d17565b5b6122de86828701612245565b935093505060206122f186828701611d9b565b9150509250925092565b6000806040838503121561231257612311611d12565b5b600061232085828601611d65565b925050602061233185828601611d65565b9150509250929050565b7f4e487b7100000000000000000000000000000000000000000000000000000000600052602260045260246000fd5b6000600282049050600182168061238257607f821691505b6020821081036123955761239461233b565b5b50919050565b60006040820190506123b06000830185612211565b6123bd6020830184611e26565b9392505050565b7f4e487b7100000000000000000000000000000000000000000000000000000000600052601160045260246000fd5b60006123fe82611d7a565b915061240983611d7a565b9250828201905080821115612421576124206123c4565b5b92915050565b60008190508160005260206000209050919050565b60006020601f8301049050919050565b600082821b905092915050565b6000600883026124897fffffffffffffffffffffffffffffffffffffffffffffffffffffffffffffffff8261244c565b612493868361244c565b95508019841693508086168417925050509392505050565b6000819050919050565b60006124d06124cb6124c684611d7a565b6124ab565b611d7a565b9050919050565b6000819050919050565b6124ea836124b5565b6124fe6124f6826124d7565b848454612459565b825550505050565b600090565b612513612506565b61251e8184846124e1565b505050565b5b818110156125425761253760008261250b565b600181019050612524565b5050565b601f8211156125875761255881612427565b6125618461243c565b81016020851015612570578190505b61258461257c8561243c565b830182612523565b50505b505050565b600082821c905092915050565b60006125aa6000198460080261258c565b1980831691505092915050565b60006125c38383612599565b9150826002028217905092915050565b6125dc82611c56565b67ffffffffffffffff8111156125f5576125f4611f11565b5b6125ff825461236a565b61260a828285612546565b600060209050601f83116001811461263d576000841561262b578287015190505b61263585826125b7565b86555061269d565b601f19841661264b86612427565b60005b828110156126735784890151825560018201915060208501945060208101905061264e565b86831015612690578489015161268c601f891682612599565b8355505b6001600288020188555050505b505050505050565b60006040820190506126ba6000830185612211565b6126c76020830184611dfc565b9392505050565b600081905092915050565b60006126e583856126ce565b93506126f2838584611fbd565b82840190509392505050565b6000819050919050565b61271961271482611d7a565b6126fe565b82525050565b600061272c8285876126d9565b91506127388284612708565b602082019150819050949350505050565b600082905092915050565b61275e8383612749565b67ffffffffffffffff81111561277757612776611f11565b5b612781825461236a565b61278c828285612546565b6000601f8311600181146127bb57600084156127a9578287013590505b6127b385826125b7565b86555061281b565b601f1984166127c986612427565b60005b828110156127f1578489013582556001820191506020850194506020810190506127cc565b8683101561280e578489013561280a601f891682612599565b8355505b6001600288020188555050505b50505050505050565b60006128308385611c61565b935061283d838584611fbd565b61284683611c9c565b840190509392505050565b61285a81612085565b82525050565b60006080820190506128756000830188612211565b8181036020830152612888818688612824565b90506128976040830185612851565b6128a46060830184611e26565b9695505050505050565b7f45524332303a2064656372656173656420616c6c6f77616e63652062656c6f7760008201527f207a65726f000000000000000000000000000000000000000000000000000000602082015250565b600061290a602583611c61565b9150612915826128ae565b604082019050919050565b60006020820190508181036000830152612939816128fd565b9050919050565b60008154905061294f8161236a565b9050919050565b818103612964575050612a3c565b61296d82612940565b67ffffffffffffffff81111561298657612985611f11565b5b612990825461236a565b61299b828285612546565b6000601f8311600181146129ca57600084156129b8578287015490505b6129c285826125b7565b865550612a35565b601f1984166129d887612427565b96506129e386612427565b60005b82811015612a0b578489015482556001820191506001850194506020810190506129e6565b86831015612a285784890154612a24601f891682612599565b8355505b6001600288020188555050505b5050505050505b565b60008154612a4b8161236a565b612a558186611c61565b94506001821660008114612a705760018114612a8657612ab9565b60ff198316865281151560200286019350612ab9565b612a8f85612427565b60005b83811015612ab157815481890152600182019150602081019050612a92565b808801955050505b50505092915050565b6000606082019050612ad76000830186612211565b612ae46020830185612851565b8181036040830152612af68184612a3e565b9050949350505050565b6000606082019050612b156000830186612211565b612b226020830185612211565b612b2f6040830184611e26565b949350505050565b7f4f776e61626c653a206e6577206f776e657220697320746865207a65726f206160008201527f6464726573730000000000000000000000000000000000000000000000000000602082015250565b6000612b93602683611c61565b9150612b9e82612b37565b604082019050919050565b60006020820190508181036000830152612bc281612b86565b9050919050565b7f45524332303a20617070726f76652066726f6d20746865207a65726f2061646460008201527f7265737300000000000000000000000000000000000000000000000000000000602082015250565b6000612c25602483611c61565b9150612c3082612bc9565b604082019050919050565b60006020820190508181036000830152612c5481612c18565b9050919050565b7f45524332303a20617070726f766520746f20746865207a65726f20616464726560008201527f7373000000000000000000000000000000000000000000000000000000000000602082015250565b6000612cb7602283611c61565b9150612cc282612c5b565b604082019050919050565b60006020820190508181036000830152612ce681612caa565b9050919050565b7f45524332303a20696e73756666696369656e7420616c6c6f77616e6365000000600082015250565b6000612d23601d83611c61565b9150612d2e82612ced565b602082019050919050565b60006020820190508181036000830152612d5281612d16565b9050919050565b7f45524332303a207472616e736665722066726f6d20746865207a65726f20616460008201527f6472657373000000000000000000000000000000000000000000000000000000602082015250565b6000612db5602583611c61565b9150612dc082612d59565b604082019050919050565b60006020820190508181036000830152612de481612da8565b9050919050565b7f45524332303a207472616e7366657220746f20746865207a65726f206164647260008201527f6573730000000000000000000000000000000000000000000000000000000000602082015250565b6000612e47602383611c61565b9150612e5282612deb565b604082019050919050565b60006020820190508181036000830152612e7681612e3a565b9050919050565b7f45524332303a207472616e7366657220616d6f756e742065786365656473206260008201527f616c616e63650000000000000000000000000000000000000000000000000000602082015250565b6000612ed9602683611c61565b9150612ee482612e7d565b604082019050919050565b60006020820190508181036000830152612f0881612ecc565b9050919050565b7f45524332303a206275726e2066726f6d20746865207a65726f2061646472657360008201527f7300000000000000000000000000000000000000000000000000000000000000602082015250565b6000612f6b602183611c61565b9150612f7682612f0f565b604082019050919050565b60006020820190508181036000830152612f9a81612f5e565b9050919050565b7f45524332303a206275726e20616d6f756e7420657863656564732062616c616e60008201527f6365000000000000000000000000000000000000000000000000000000000000602082015250565b6000612ffd602283611c61565b915061300882612fa1565b604082019050919050565b6000602082019050818103600083015261302c81612ff0565b9050919050565b7f4f776e61626c653a2063616c6c6572206973206e6f7420746865206f776e6572600082015250565b6000613069602083611c61565b915061307482613033565b602082019050919050565b600060208201905081810360008301526130988161305c565b9050919050565b7f45524332303a206d696e7420746f20746865207a65726f206164647265737300600082015250565b60006130d5601f83611c61565b91506130e08261309f565b602082019050919050565b60006020820190508181036000830152613104816130c8565b905091905056fea26469706673582212205cc7b6791fe460b3af06a112962a4afaa3a7168c73f9604867bc18a36a8156a564736f6c63430008120033",
  "linkReferences": {},
  "deployedLinkReferences": {}
}